{
  "contractName": "Tuition",
  "abi": [
    {
      "constant": true,
      "inputs": [],
      "name": "className",
      "outputs": [
        {
          "name": "",
          "type": "string"
        }
      ],
      "payable": false,
      "stateMutability": "view",
      "type": "function"
    },
    {
      "constant": true,
      "inputs": [
        {
          "name": "",
          "type": "uint256"
        }
      ],
      "name": "students",
      "outputs": [
        {
          "name": "",
          "type": "address"
        }
      ],
      "payable": false,
      "stateMutability": "view",
      "type": "function"
    },
    {
      "constant": true,
      "inputs": [],
      "name": "maxStudents",
      "outputs": [
        {
          "name": "",
          "type": "uint256"
        }
      ],
      "payable": false,
      "stateMutability": "view",
      "type": "function"
    },
    {
      "constant": true,
      "inputs": [
        {
          "name": "",
          "type": "address"
        }
      ],
      "name": "studentInfo",
      "outputs": [
        {
          "name": "studentName",
          "type": "string"
        },
        {
          "name": "teacherRating",
          "type": "uint256"
        },
        {
          "name": "grade",
          "type": "uint256"
        },
        {
          "name": "refunded",
          "type": "bool"
        }
      ],
      "payable": false,
      "stateMutability": "view",
      "type": "function"
    },
    {
      "constant": true,
      "inputs": [],
      "name": "tuitionFee",
      "outputs": [
        {
          "name": "",
          "type": "uint256"
        }
      ],
      "payable": false,
      "stateMutability": "view",
      "type": "function"
    },
    {
      "constant": true,
      "inputs": [],
      "name": "feeCollected",
      "outputs": [
        {
          "name": "",
          "type": "uint256"
        }
      ],
      "payable": false,
      "stateMutability": "view",
      "type": "function"
    },
    {
      "constant": true,
      "inputs": [],
      "name": "owner",
      "outputs": [
        {
          "name": "",
          "type": "address"
        }
      ],
      "payable": false,
      "stateMutability": "view",
      "type": "function"
    },
    {
      "constant": true,
      "inputs": [],
      "name": "teacher",
      "outputs": [
        {
          "name": "",
          "type": "address"
        }
      ],
      "payable": false,
      "stateMutability": "view",
      "type": "function"
    },
    {
      "constant": true,
      "inputs": [],
      "name": "stage",
      "outputs": [
        {
          "name": "",
          "type": "uint8"
        }
      ],
      "payable": false,
      "stateMutability": "view",
      "type": "function"
    },
    {
      "constant": true,
      "inputs": [],
      "name": "creationTime",
      "outputs": [
        {
          "name": "",
          "type": "uint256"
        }
      ],
      "payable": false,
      "stateMutability": "view",
      "type": "function"
    },
    {
      "constant": true,
      "inputs": [],
      "name": "studentCount",
      "outputs": [
        {
          "name": "",
          "type": "uint256"
        }
      ],
      "payable": false,
      "stateMutability": "view",
      "type": "function"
    },
    {
      "inputs": [],
      "payable": false,
      "stateMutability": "nonpayable",
      "type": "constructor"
    },
    {
      "payable": true,
      "stateMutability": "payable",
      "type": "fallback"
    },
    {
      "anonymous": false,
      "inputs": [
        {
          "indexed": false,
          "name": "student",
          "type": "address"
        }
      ],
      "name": "registerStudent",
      "type": "event"
    },
    {
      "constant": false,
      "inputs": [],
      "name": "stopContract",
      "outputs": [],
      "payable": false,
      "stateMutability": "nonpayable",
      "type": "function"
    },
    {
      "constant": false,
      "inputs": [],
      "name": "resumeContract",
      "outputs": [],
      "payable": false,
      "stateMutability": "nonpayable",
      "type": "function"
    },
    {
      "constant": false,
      "inputs": [],
      "name": "emergencyWithdraw",
      "outputs": [
        {
          "name": "",
          "type": "bool"
        }
      ],
      "payable": false,
      "stateMutability": "nonpayable",
      "type": "function"
    },
    {
      "constant": false,
      "inputs": [
        {
          "name": "_className",
          "type": "string"
        }
      ],
      "name": "setClassName",
      "outputs": [],
      "payable": false,
      "stateMutability": "nonpayable",
      "type": "function"
    },
    {
      "constant": false,
      "inputs": [
        {
          "name": "_teacher",
          "type": "address"
        }
      ],
      "name": "setTeacher",
      "outputs": [],
      "payable": false,
      "stateMutability": "nonpayable",
      "type": "function"
    },
    {
      "constant": false,
      "inputs": [
        {
          "name": "_tuitionFee",
          "type": "uint256"
        }
      ],
      "name": "setTuitionFee",
      "outputs": [],
      "payable": false,
      "stateMutability": "nonpayable",
      "type": "function"
    },
    {
      "constant": false,
      "inputs": [],
      "name": "publishClass",
      "outputs": [],
      "payable": false,
      "stateMutability": "nonpayable",
      "type": "function"
    },
    {
      "constant": false,
      "inputs": [],
      "name": "endClass",
      "outputs": [],
      "payable": false,
      "stateMutability": "nonpayable",
      "type": "function"
    },
    {
      "constant": false,
      "inputs": [],
      "name": "reviewClass",
      "outputs": [],
      "payable": false,
      "stateMutability": "nonpayable",
      "type": "function"
    },
    {
      "constant": true,
      "inputs": [],
      "name": "getBalance",
      "outputs": [
        {
          "name": "",
          "type": "uint256"
        }
      ],
      "payable": false,
      "stateMutability": "view",
      "type": "function"
    },
    {
      "constant": true,
      "inputs": [
        {
          "name": "student",
          "type": "address"
        }
      ],
      "name": "checkStudentExists",
      "outputs": [
        {
          "name": "",
          "type": "bool"
        }
      ],
      "payable": false,
      "stateMutability": "view",
      "type": "function"
    },
    {
      "constant": false,
      "inputs": [
        {
          "name": "_studentName",
          "type": "string"
        }
      ],
      "name": "registerTuition",
      "outputs": [],
      "payable": true,
      "stateMutability": "payable",
      "type": "function"
    },
    {
      "constant": false,
      "inputs": [],
      "name": "closeRegistration",
      "outputs": [],
      "payable": false,
      "stateMutability": "nonpayable",
      "type": "function"
    },
    {
      "constant": false,
      "inputs": [
        {
          "name": "studentAddress",
          "type": "address"
        },
        {
          "name": "_grade",
          "type": "uint256"
        }
      ],
      "name": "recordGrade",
      "outputs": [],
      "payable": false,
      "stateMutability": "nonpayable",
      "type": "function"
    },
    {
      "constant": false,
      "inputs": [
        {
          "name": "rating",
          "type": "uint256"
        }
      ],
      "name": "giveTeacherRating",
      "outputs": [
        {
          "name": "",
          "type": "bool"
        }
      ],
      "payable": false,
      "stateMutability": "nonpayable",
      "type": "function"
    },
    {
      "constant": false,
      "inputs": [],
      "name": "withdawFees",
      "outputs": [],
      "payable": false,
      "stateMutability": "nonpayable",
      "type": "function"
    }
  ],
  "bytecode": "0x608060405260008060006101000a81548160ff0219169083600481111561002257fe5b02179055504260015560026006556000600b60006101000a81548160ff02191690831515021790555034801561005757600080fd5b5033600360006101000a81548173ffffffffffffffffffffffffffffffffffffffff021916908373ffffffffffffffffffffffffffffffffffffffff160217905550611e62806100a86000396000f30060806040526004361061015e576000357c0100000000000000000000000000000000000000000000000000000000900463ffffffff168062c51f8c1461016057806306ead22e146101f057806312065fe01461025d57806312253a6c14610288578063176366c41461029f57806326215912146102e25780633b522e23146102f95780633d847dda146103245780634cca59cf146103f95780635c4d0421146104625780636ca7f95c1461048d5780637dc673bc146104b85780638119cd54146104cf57806388e4f2d1146105145780638da5cb5b146105415780639142b757146105985780639b271c0a146105af578063a2f29fbf146105fc578063a7cc6d2514610657578063b46bff89146106b3578063c040e6b81461070a578063c4bc5da514610743578063d8270dce1461075a578063db2e21bc14610785578063e581f9ee146107b4578063f51c0b81146107df578063fdd6f300146107f6575b005b34801561016c57600080fd5b5061017561080d565b6040518080602001828103825283818151815260200191508051906020019080838360005b838110156101b557808201518184015260208101905061019a565b50505050905090810190601f1680156101e25780820380516001836020036101000a031916815260200191505b509250505060405180910390f35b3480156101fc57600080fd5b5061021b600480360381019080803590602001909291905050506108ab565b604051808273ffffffffffffffffffffffffffffffffffffffff1673ffffffffffffffffffffffffffffffffffffffff16815260200191505060405180910390f35b34801561026957600080fd5b506102726108e9565b6040518082815260200191505060405180910390f35b34801561029457600080fd5b5061029d610908565b005b3480156102ab57600080fd5b506102e0600480360381019080803573ffffffffffffffffffffffffffffffffffffffff1690602001909291905050506109ea565b005b3480156102ee57600080fd5b506102f7610b28565b005b34801561030557600080fd5b5061030e610c3d565b6040518082815260200191505060405180910390f35b34801561033057600080fd5b50610365600480360381019080803573ffffffffffffffffffffffffffffffffffffffff169060200190929190505050610c43565b604051808060200185815260200184815260200183151515158152602001828103825286818151815260200191508051906020019080838360005b838110156103bb5780820151818401526020810190506103a0565b50505050905090810190601f1680156103e85780820380516001836020036101000a031916815260200191505b509550505050505060405180910390f35b34801561040557600080fd5b50610460600480360381019080803590602001908201803590602001908080601f0160208091040260200160405190810160405280939291908181526020018383808284378201915050505050509192919290505050610d18565b005b34801561046e57600080fd5b50610477610e2c565b6040518082815260200191505060405180910390f35b34801561049957600080fd5b506104a2610e32565b6040518082815260200191505060405180910390f35b3480156104c457600080fd5b506104cd610e38565b005b3480156104db57600080fd5b506104fa60048036038101908080359060200190929190505050610f3c565b604051808215151515815260200191505060405180910390f35b34801561052057600080fd5b5061053f60048036038101908080359060200190929190505050611029565b005b34801561054d57600080fd5b5061055661114b565b604051808273ffffffffffffffffffffffffffffffffffffffff1673ffffffffffffffffffffffffffffffffffffffff16815260200191505060405180910390f35b3480156105a457600080fd5b506105ad611171565b005b3480156105bb57600080fd5b506105fa600480360381019080803573ffffffffffffffffffffffffffffffffffffffff16906020019092919080359060200190929190505050611275565b005b34801561060857600080fd5b5061063d600480360381019080803573ffffffffffffffffffffffffffffffffffffffff1690602001909291905050506113ba565b604051808215151515815260200191505060405180910390f35b6106b1600480360381019080803590602001908201803590602001908080601f016020809104026020016040519081016040528093929190818152602001838380828437820191505050505050919291929050505061145d565b005b3480156106bf57600080fd5b506106c861171e565b604051808273ffffffffffffffffffffffffffffffffffffffff1673ffffffffffffffffffffffffffffffffffffffff16815260200191505060405180910390f35b34801561071657600080fd5b5061071f611744565b6040518082600481111561072f57fe5b60ff16815260200191505060405180910390f35b34801561074f57600080fd5b50610758611756565b005b34801561076657600080fd5b5061076f611838565b6040518082815260200191505060405180910390f35b34801561079157600080fd5b5061079a61183e565b604051808215151515815260200191505060405180910390f35b3480156107c057600080fd5b506107c9611981565b6040518082815260200191505060405180910390f35b3480156107eb57600080fd5b506107f4611987565b005b34801561080257600080fd5b5061080b611af6565b005b60048054600181600116156101000203166002900480601f0160208091040260200160405190810160405280929190818152602001828054600181600116156101000203166002900480156108a35780601f10610878576101008083540402835291602001916108a3565b820191906000526020600020905b81548152906001019060200180831161088657829003601f168201915b505050505081565b600a818154811015156108ba57fe5b906000526020600020016000915054906101000a900473ffffffffffffffffffffffffffffffffffffffff1681565b60003073ffffffffffffffffffffffffffffffffffffffff1631905090565b600360009054906101000a900473ffffffffffffffffffffffffffffffffffffffff1673ffffffffffffffffffffffffffffffffffffffff163373ffffffffffffffffffffffffffffffffffffffff161415156109cd576040517f08c379a00000000000000000000000000000000000000000000000000000000081526004018080602001828103825260188152602001807f4f6e79206f6e6c79417574686f72697a6564204f776e6572000000000000000081525060200191505060405180910390fd5b6001600b60006101000a81548160ff021916908315150217905550565b600360009054906101000a900473ffffffffffffffffffffffffffffffffffffffff1673ffffffffffffffffffffffffffffffffffffffff163373ffffffffffffffffffffffffffffffffffffffff16141515610aaf576040517f08c379a00000000000000000000000000000000000000000000000000000000081526004018080602001828103825260188152602001807f4f6e79206f6e6c79417574686f72697a6564204f776e6572000000000000000081525060200191505060405180910390fd5b6000806004811115610abd57fe5b6000809054906101000a900460ff166004811115610ad757fe5b141515610ae357600080fd5b81600260006101000a81548173ffffffffffffffffffffffffffffffffffffffff021916908373ffffffffffffffffffffffffffffffffffffffff1602179055505050565b600260009054906101000a900473ffffffffffffffffffffffffffffffffffffffff1673ffffffffffffffffffffffffffffffffffffffff163373ffffffffffffffffffffffffffffffffffffffff16141515610bed576040517f08c379a000000000000000000000000000000000000000000000000000000000815260040180806020018281038252600c8152602001807f4f6e6c792054656163686572000000000000000000000000000000000000000081525060200191505060405180910390fd5b6000806004811115610bfb57fe5b6000809054906101000a900460ff166004811115610c1557fe5b141515610c2157600080fd5b6000600754111515610c3257600080fd5b610c3a611bfa565b50565b60065481565b600c602052806000526040600020600091509050806000018054600181600116156101000203166002900480601f016020809104026020016040519081016040528092919081815260200182805460018160011615610100020316600290048015610cef5780601f10610cc457610100808354040283529160200191610cef565b820191906000526020600020905b815481529060010190602001808311610cd257829003601f168201915b5050505050908060010154908060020154908060030160009054906101000a900460ff16905084565b600260009054906101000a900473ffffffffffffffffffffffffffffffffffffffff1673ffffffffffffffffffffffffffffffffffffffff163373ffffffffffffffffffffffffffffffffffffffff16141515610ddd576040517f08c379a000000000000000000000000000000000000000000000000000000000815260040180806020018281038252600c8152602001807f4f6e6c792054656163686572000000000000000000000000000000000000000081525060200191505060405180910390fd5b6000806004811115610deb57fe5b6000809054906101000a900460ff166004811115610e0557fe5b141515610e1157600080fd5b8160049080519060200190610e27929190611d91565b505050565b60075481565b60085481565b600260009054906101000a900473ffffffffffffffffffffffffffffffffffffffff1673ffffffffffffffffffffffffffffffffffffffff163373ffffffffffffffffffffffffffffffffffffffff16141515610efd576040517f08c379a000000000000000000000000000000000000000000000000000000000815260040180806020018281038252600c8152602001807f4f6e6c792054656163686572000000000000000000000000000000000000000081525060200191505060405180910390fd5b6001806004811115610f0b57fe5b6000809054906101000a900460ff166004811115610f2557fe5b141515610f3157600080fd5b610f39611c39565b50565b60006004806004811115610f4c57fe5b6000809054906101000a900460ff166004811115610f6657fe5b141515610f7257600080fd5b60001515600c60003373ffffffffffffffffffffffffffffffffffffffff1673ffffffffffffffffffffffffffffffffffffffff16815260200190815260200160002060030160009054906101000a900460ff161515141561101e5782600c60003373ffffffffffffffffffffffffffffffffffffffff1673ffffffffffffffffffffffffffffffffffffffff1681526020019081526020016000206001018190555060019150611023565b600091505b50919050565b600260009054906101000a900473ffffffffffffffffffffffffffffffffffffffff1673ffffffffffffffffffffffffffffffffffffffff163373ffffffffffffffffffffffffffffffffffffffff161415156110ee576040517f08c379a000000000000000000000000000000000000000000000000000000000815260040180806020018281038252600c8152602001807f4f6e6c792054656163686572000000000000000000000000000000000000000081525060200191505060405180910390fd5b60008060048111156110fc57fe5b6000809054906101000a900460ff16600481111561111657fe5b14151561112257600080fd5b60008211156111375781600781905550611147565b670de0b6b3a76400006007819055505b5050565b600360009054906101000a900473ffffffffffffffffffffffffffffffffffffffff1681565b600260009054906101000a900473ffffffffffffffffffffffffffffffffffffffff1673ffffffffffffffffffffffffffffffffffffffff163373ffffffffffffffffffffffffffffffffffffffff16141515611236576040517f08c379a000000000000000000000000000000000000000000000000000000000815260040180806020018281038252600c8152602001807f4f6e6c792054656163686572000000000000000000000000000000000000000081525060200191505060405180910390fd5b600280600481111561124457fe5b6000809054906101000a900460ff16600481111561125e57fe5b14151561126a57600080fd5b611272611c39565b50565b600260009054906101000a900473ffffffffffffffffffffffffffffffffffffffff1673ffffffffffffffffffffffffffffffffffffffff163373ffffffffffffffffffffffffffffffffffffffff1614151561133a576040517f08c379a000000000000000000000000000000000000000000000000000000000815260040180806020018281038252600c8152602001807f4f6e6c792054656163686572000000000000000000000000000000000000000081525060200191505060405180910390fd5b600380600481111561134857fe5b6000809054906101000a900460ff16600481111561136257fe5b14151561136e57600080fd5b81600c60008573ffffffffffffffffffffffffffffffffffffffff1673ffffffffffffffffffffffffffffffffffffffff16815260200190815260200160002060020181905550505050565b600080600090505b600a80549050811015611452578273ffffffffffffffffffffffffffffffffffffffff16600a828154811015156113f557fe5b9060005260206000200160009054906101000a900473ffffffffffffffffffffffffffffffffffffffff1673ffffffffffffffffffffffffffffffffffffffff1614156114455760019150611457565b80806001019150506113c2565b600091505b50919050565b600080600b60009054906101000a900460ff1615151561147c57600080fd5b600180600481111561148a57fe5b6000809054906101000a900460ff1660048111156114a457fe5b1415156114b057600080fd5b6006546005541015156114c257600080fd5b6114cb336113ba565b151515611540576040517f08c379a000000000000000000000000000000000000000000000000000000000815260040180806020018281038252601a8152602001807f53747564656e7420616c7265616479207265676973746572656400000000000081525060200191505060405180910390fd5b60075434101515156115ba576040517f08c379a00000000000000000000000000000000000000000000000000000000081526004018080602001828103825260168152602001807f54756974696f6e2046656520697320312045746865720000000000000000000081525060200191505060405180910390fd5b3492506115c983600754611c78565b9150600a3390806001815401808255809150509060018203906000526020600020016000909192909190916101000a81548173ffffffffffffffffffffffffffffffffffffffff021916908373ffffffffffffffffffffffffffffffffffffffff1602179055505083600c60003373ffffffffffffffffffffffffffffffffffffffff1673ffffffffffffffffffffffffffffffffffffffff1681526020019081526020016000206000019080519060200190611687929190611d91565b506005600081548092919060010191905055506116a8600854600754611ca5565b6008819055506000821115611703573373ffffffffffffffffffffffffffffffffffffffff166108fc839081150290604051600060405180830381858888f193505050501580156116fd573d6000803e3d6000fd5b50600091505b600654600554141561171857611717611c39565b5b50505050565b600260009054906101000a900473ffffffffffffffffffffffffffffffffffffffff1681565b6000809054906101000a900460ff1681565b600360009054906101000a900473ffffffffffffffffffffffffffffffffffffffff1673ffffffffffffffffffffffffffffffffffffffff163373ffffffffffffffffffffffffffffffffffffffff1614151561181b576040517f08c379a00000000000000000000000000000000000000000000000000000000081526004018080602001828103825260188152602001807f4f6e79206f6e6c79417574686f72697a6564204f776e6572000000000000000081525060200191505060405180910390fd5b6000600b60006101000a81548160ff021916908315150217905550565b60015481565b6000600b60009054906101000a900460ff16151561185b57600080fd5b60011515600c60003373ffffffffffffffffffffffffffffffffffffffff1673ffffffffffffffffffffffffffffffffffffffff16815260200190815260200160002060030160009054906101000a900460ff161515141515611979576001600c60003373ffffffffffffffffffffffffffffffffffffffff1673ffffffffffffffffffffffffffffffffffffffff16815260200190815260200160002060030160006101000a81548160ff021916908315150217905550611921600854600754611c78565b6008819055503373ffffffffffffffffffffffffffffffffffffffff166108fc6007549081150290604051600060405180830381858888f1935050505015801561196f573d6000803e3d6000fd5b506001905061197e565b600090505b90565b60055481565b6000600260009054906101000a900473ffffffffffffffffffffffffffffffffffffffff1673ffffffffffffffffffffffffffffffffffffffff163373ffffffffffffffffffffffffffffffffffffffff16141515611a4e576040517f08c379a000000000000000000000000000000000000000000000000000000000815260040180806020018281038252600c8152602001807f4f6e6c792054656163686572000000000000000000000000000000000000000081525060200191505060405180910390fd5b600b60009054906101000a900460ff16151515611a6a57600080fd5b6004806004811115611a7857fe5b6000809054906101000a900460ff166004811115611a9257fe5b141515611a9e57600080fd5b600854915060006008819055503373ffffffffffffffffffffffffffffffffffffffff166108fc839081150290604051600060405180830381858888f19350505050158015611af1573d6000803e3d6000fd5b505050565b600260009054906101000a900473ffffffffffffffffffffffffffffffffffffffff1673ffffffffffffffffffffffffffffffffffffffff163373ffffffffffffffffffffffffffffffffffffffff16141515611bbb576040517f08c379a000000000000000000000000000000000000000000000000000000000815260040180806020018281038252600c8152602001807f4f6e6c792054656163686572000000000000000000000000000000000000000081525060200191505060405180910390fd5b6003806004811115611bc957fe5b6000809054906101000a900460ff166004811115611be357fe5b141515611bef57600080fd5b611bf7611cd2565b50565b6000806004811115611c0857fe5b6000809054906101000a900460ff166004811115611c2257fe5b141515611c2e57600080fd5b611c36611d11565b50565b6001806004811115611c4757fe5b6000809054906101000a900460ff166004811115611c6157fe5b141515611c6d57600080fd5b611c75611d11565b50565b600080600981905550611c948284611d5c90919063ffffffff16565b600981905550600954905092915050565b600080600981905550611cc18284611d7590919063ffffffff16565b600981905550600954905092915050565b6003806004811115611ce057fe5b6000809054906101000a900460ff166004811115611cfa57fe5b141515611d0657600080fd5b611d0e611d11565b50565b60016000809054906101000a900460ff166004811115611d2d57fe5b016004811115611d3957fe5b6000806101000a81548160ff02191690836004811115611d5557fe5b0217905550565b6000828211151515611d6a57fe5b818303905092915050565b60008183019050828110151515611d8857fe5b80905092915050565b828054600181600116156101000203166002900490600052602060002090601f016020900481019282601f10611dd257805160ff1916838001178555611e00565b82800160010185558215611e00579182015b82811115611dff578251825591602001919060010190611de4565b5b509050611e0d9190611e11565b5090565b611e3391905b80821115611e2f576000816000905550600101611e17565b5090565b905600a165627a7a723058200e6366e07f551d26addd3e9cba70f2d012f0e9bd668f0977a1f4f8a49b7cb7770029",
  "source": "pragma solidity ^0.4.18;\n\nimport \"openzeppelin-solidity/contracts/math/SafeMath.sol\";\n\n\ncontract Tuition {\nusing SafeMath for uint256;\n\n    //Stages of tuition\n    enum Stages {\n        Preparation,\n        Registration,\n        Started,\n        Ended,\n        Review\n    }\n\n    //This is the current stage\n    Stages public stage = Stages.Preparation;\n\n    uint public creationTime = now;\n\n    modifier atStage(Stages _stage) {\n        require(stage == _stage);\n        _;\n    }\n\n    function nextStage() internal {\n        stage = Stages(uint(stage) + 1);\n    }\n\n    // This modifier goes to the next stage\n    // after the function is done.\n    modifier transitionNext()\n    {\n        _;\n        nextStage();\n    }\n\n\n    //Address of the teacher\n    address public teacher;\n    address public owner;\n    string public className;\n\n    uint256 public studentCount;\n    uint256 public maxStudents = 2;\n    uint256 public tuitionFee;\n    uint256 public feeCollected;\n    uint256 result;\n    address[] public students;\n    bool isStopped = false;\n    \n    modifier notStopped {\n        require(!isStopped);\n        _;\n    }\n    \n    modifier onlyWhenStopped {\n        require(isStopped);\n        _;\n    }\n\n    modifier onlyAuthorized {\n        // Check for authorization of msg.sender here\n        require(msg.sender == owner, \"Ony onlyAuthorized Owner\");\n        _;\n    }\n\n    function stopContract() public onlyAuthorized {\n        isStopped = true;\n    }\n\n    function resumeContract() public onlyAuthorized {\n        isStopped = false;\n    }\n    \n    function emergencyWithdraw() public onlyWhenStopped returns(bool) {\n        // Emergency withdraw happening here\n        //Only Students who registered can withdraw\n        //Student can only withdraw \n        \n        //student have not withdraw\n        if(studentInfo[msg.sender].refunded != true){\n            studentInfo[msg.sender].refunded = true;\n            feeCollected = SafeMinus(feeCollected,tuitionFee);\n            msg.sender.transfer(tuitionFee);\n            return true;\n                \n        }\n        return false;\n        \n        \n    }\n    \n\n\n    struct Student {\n        string studentName;\n        uint256 teacherRating;\n        uint256 grade;\n        bool refunded;\n    }\n    //Constructor \n    function Tuition() public{\n        owner = msg.sender;\n    }\n    \n    function setClassName(string _className) public onlyTeacher atStage(Stages.Preparation) {\n        className = _className;\n        \n    }\n    \n    function setTeacher(address _teacher) public onlyAuthorized atStage(Stages.Preparation){\n        teacher = _teacher;\n        \n    }\n    \n    function setTuitionFee(uint256 _tuitionFee )public onlyTeacher atStage(Stages.Preparation) {\n        if(_tuitionFee > 0) {\n            tuitionFee = _tuitionFee;\n        }else{\n            tuitionFee = 1 ether;\n        }\n    }\n    \n    function publishClass() public onlyTeacher atStage(Stages.Preparation){\n         require(tuitionFee > 0);\n         setStageToRegistration();\n    }\n    function endClass() public onlyTeacher atStage(Stages.Started){\n        setStageToStarted();\n    }\n    \n    function reviewClass() public onlyTeacher atStage(Stages.Ended){\n        setStageToReview();\n    }\n    \n    \n    function() public payable {\n    // this function enables the contract to receive funds\n    }\n    \n    function getBalance() public view returns (uint256) {\n        return address(this).balance;\n    }\n    \n    function SafeAdd(uint256 a, uint256 b) internal returns (uint256) {\n      result = 0;\n      result = a.add(b);\n      return result;\n    }\n    \n    function SafeMinus(uint256 a, uint256 b)internal returns (uint256) {\n      result = 0;\n      result = a.sub(b);\n      return result;\n    }\n\n    //The address of the student map to the structure\n    mapping(address => Student) public studentInfo;\n\n    modifier onlyTeacher{\n        require(msg.sender == teacher, \"Only Teacher\");\n        _;\n\n    }\n    \n    function checkStudentExists(address student) public view returns(bool){\n        for(uint256 i = 0; i < students.length; i++){\n            if(students[i] == student) return true;\n        }\n        return false;\n    }\n\n    event registerStudent(address student);\n    \n    function registerTuition(string _studentName) public payable notStopped atStage(Stages.Registration){\n        require(studentCount<maxStudents);\n        require(!checkStudentExists(msg.sender), \"Student already registered\");\n        require(msg.value >= tuitionFee, \"Tuition Fee is 1 Ether\");\n        \n        uint256 receivedAmt = msg.value;\n        uint256 ethToReturn = SafeMinus(receivedAmt, tuitionFee);\n        \n        \n        //Store student into student array\n        students.push(msg.sender);\n        studentInfo[msg.sender].studentName = _studentName;\n        studentCount ++;\n        \n        feeCollected = SafeAdd(feeCollected,tuitionFee);\n        \n        \n        if(ethToReturn > 0){\n            msg.sender.transfer(ethToReturn);\n            ethToReturn = 0;\n            \n        } \n        \n        if(studentCount == maxStudents){\n            setStageToStarted();\n        }\n        \n    }\n    \n    function closeRegistration() public onlyTeacher atStage(Stages.Registration){\n        setStageToStarted();\n    }\n    \n    function recordGrade(address studentAddress,uint256 _grade) public onlyTeacher atStage(Stages.Ended){\n        \n        studentInfo[studentAddress].grade = _grade;\n        \n    }\n    \n    function giveTeacherRating(uint256 rating) public atStage(Stages.Review) returns (bool) {\n        //msg.sender must be a student and have not refunded fees\n         if(studentInfo[msg.sender].refunded == false){\n             studentInfo[msg.sender].teacherRating =rating;\n             return true;\n         }\n         return false;\n    }\n  \n   \n\n    function withdawFees() public onlyTeacher notStopped atStage(Stages.Review){\n        \n        uint amount = feeCollected;\n        // Remember to zero the pending refund before\n        // sending to prevent re-entrancy attacks\n        feeCollected = 0;\n        msg.sender.transfer(amount);\n\n    }\n\n    function setStageToRegistration() internal atStage(Stages.Preparation) transitionNext{\n        \n    }\n\n    function setStageToStarted() internal atStage(Stages.Registration) transitionNext{\n\n    }\n\n    function setStageToEnded()  internal atStage(Stages.Started) transitionNext{\n\n    }\n\n    function setStageToReview()  internal atStage(Stages.Ended) transitionNext{\n\n    }\n\n\n\n\n\n\n\n\n\n\n\n}",
  "sourcePath": "/home/louis/Desktop/blockchain_project/contracts/Tuition.sol",
  "compiler": {
    "name": "solc",
    "version": "0.4.24+commit.e67f0147.Emscripten.clang"
  },
  "schemaVersion": "2.0.1",
  "updatedAt": "2018-08-20T05:56:32.855Z"
}