{
  "contractName": "Tuition",
  "abi": [
    {
      "constant": true,
      "inputs": [],
      "name": "className",
      "outputs": [
        {
          "name": "",
          "type": "string"
        }
      ],
      "payable": false,
      "stateMutability": "view",
      "type": "function"
    },
    {
      "constant": true,
      "inputs": [
        {
          "name": "",
          "type": "uint256"
        }
      ],
      "name": "students",
      "outputs": [
        {
          "name": "",
          "type": "address"
        }
      ],
      "payable": false,
      "stateMutability": "view",
      "type": "function"
    },
    {
      "constant": true,
      "inputs": [],
      "name": "maxStudents",
      "outputs": [
        {
          "name": "",
          "type": "uint256"
        }
      ],
      "payable": false,
      "stateMutability": "view",
      "type": "function"
    },
    {
      "constant": true,
      "inputs": [
        {
          "name": "",
          "type": "address"
        }
      ],
      "name": "studentInfo",
      "outputs": [
        {
          "name": "studentName",
          "type": "string"
        },
        {
          "name": "teacherRating",
          "type": "uint256"
        },
        {
          "name": "grade",
          "type": "uint256"
        },
        {
          "name": "refunded",
          "type": "bool"
        }
      ],
      "payable": false,
      "stateMutability": "view",
      "type": "function"
    },
    {
      "constant": true,
      "inputs": [],
      "name": "isStopped",
      "outputs": [
        {
          "name": "",
          "type": "bool"
        }
      ],
      "payable": false,
      "stateMutability": "view",
      "type": "function"
    },
    {
      "constant": true,
      "inputs": [],
      "name": "tuitionFee",
      "outputs": [
        {
          "name": "",
          "type": "uint256"
        }
      ],
      "payable": false,
      "stateMutability": "view",
      "type": "function"
    },
    {
      "constant": true,
      "inputs": [],
      "name": "feeCollected",
      "outputs": [
        {
          "name": "",
          "type": "uint256"
        }
      ],
      "payable": false,
      "stateMutability": "view",
      "type": "function"
    },
    {
      "constant": true,
      "inputs": [],
      "name": "owner",
      "outputs": [
        {
          "name": "",
          "type": "address"
        }
      ],
      "payable": false,
      "stateMutability": "view",
      "type": "function"
    },
    {
      "constant": true,
      "inputs": [],
      "name": "teacher",
      "outputs": [
        {
          "name": "",
          "type": "address"
        }
      ],
      "payable": false,
      "stateMutability": "view",
      "type": "function"
    },
    {
      "constant": true,
      "inputs": [],
      "name": "stage",
      "outputs": [
        {
          "name": "",
          "type": "uint8"
        }
      ],
      "payable": false,
      "stateMutability": "view",
      "type": "function"
    },
    {
      "constant": true,
      "inputs": [],
      "name": "creationTime",
      "outputs": [
        {
          "name": "",
          "type": "uint256"
        }
      ],
      "payable": false,
      "stateMutability": "view",
      "type": "function"
    },
    {
      "constant": true,
      "inputs": [],
      "name": "studentCount",
      "outputs": [
        {
          "name": "",
          "type": "uint256"
        }
      ],
      "payable": false,
      "stateMutability": "view",
      "type": "function"
    },
    {
      "inputs": [],
      "payable": false,
      "stateMutability": "nonpayable",
      "type": "constructor"
    },
    {
      "payable": true,
      "stateMutability": "payable",
      "type": "fallback"
    },
    {
      "anonymous": false,
      "inputs": [
        {
          "indexed": false,
          "name": "teacherAddr",
          "type": "address"
        }
      ],
      "name": "logSetTeacher",
      "type": "event"
    },
    {
      "anonymous": false,
      "inputs": [
        {
          "indexed": false,
          "name": "student",
          "type": "address"
        }
      ],
      "name": "registerStudent",
      "type": "event"
    },
    {
      "constant": false,
      "inputs": [],
      "name": "stopContract",
      "outputs": [],
      "payable": false,
      "stateMutability": "nonpayable",
      "type": "function"
    },
    {
      "constant": false,
      "inputs": [],
      "name": "resumeContract",
      "outputs": [],
      "payable": false,
      "stateMutability": "nonpayable",
      "type": "function"
    },
    {
      "constant": false,
      "inputs": [],
      "name": "emergencyWithdraw",
      "outputs": [],
      "payable": false,
      "stateMutability": "nonpayable",
      "type": "function"
    },
    {
      "constant": false,
      "inputs": [
        {
          "name": "_className",
          "type": "string"
        }
      ],
      "name": "setClassName",
      "outputs": [],
      "payable": false,
      "stateMutability": "nonpayable",
      "type": "function"
    },
    {
      "constant": false,
      "inputs": [
        {
          "name": "_teacher",
          "type": "address"
        }
      ],
      "name": "setTeacher",
      "outputs": [],
      "payable": false,
      "stateMutability": "nonpayable",
      "type": "function"
    },
    {
      "constant": false,
      "inputs": [
        {
          "name": "_tuitionFee",
          "type": "uint256"
        }
      ],
      "name": "setTuitionFee",
      "outputs": [],
      "payable": false,
      "stateMutability": "nonpayable",
      "type": "function"
    },
    {
      "constant": false,
      "inputs": [],
      "name": "publishClass",
      "outputs": [],
      "payable": false,
      "stateMutability": "nonpayable",
      "type": "function"
    },
    {
      "constant": false,
      "inputs": [],
      "name": "endClass",
      "outputs": [],
      "payable": false,
      "stateMutability": "nonpayable",
      "type": "function"
    },
    {
      "constant": false,
      "inputs": [],
      "name": "reviewClass",
      "outputs": [],
      "payable": false,
      "stateMutability": "nonpayable",
      "type": "function"
    },
    {
      "constant": true,
      "inputs": [],
      "name": "getBalance",
      "outputs": [
        {
          "name": "",
          "type": "uint256"
        }
      ],
      "payable": false,
      "stateMutability": "view",
      "type": "function"
    },
    {
      "constant": true,
      "inputs": [
        {
          "name": "student",
          "type": "address"
        }
      ],
      "name": "checkStudentExists",
      "outputs": [
        {
          "name": "",
          "type": "bool"
        }
      ],
      "payable": false,
      "stateMutability": "view",
      "type": "function"
    },
    {
      "constant": false,
      "inputs": [
        {
          "name": "_studentName",
          "type": "string"
        }
      ],
      "name": "registerTuition",
      "outputs": [],
      "payable": true,
      "stateMutability": "payable",
      "type": "function"
    },
    {
      "constant": false,
      "inputs": [],
      "name": "closeRegistration",
      "outputs": [],
      "payable": false,
      "stateMutability": "nonpayable",
      "type": "function"
    },
    {
      "constant": false,
      "inputs": [
        {
          "name": "studentAddress",
          "type": "address"
        },
        {
          "name": "_grade",
          "type": "uint256"
        }
      ],
      "name": "recordGrade",
      "outputs": [],
      "payable": false,
      "stateMutability": "nonpayable",
      "type": "function"
    },
    {
      "constant": false,
      "inputs": [
        {
          "name": "rating",
          "type": "uint256"
        }
      ],
      "name": "giveTeacherRating",
      "outputs": [
        {
          "name": "",
          "type": "bool"
        }
      ],
      "payable": false,
      "stateMutability": "nonpayable",
      "type": "function"
    },
    {
      "constant": false,
      "inputs": [],
      "name": "withdrawFees",
      "outputs": [],
      "payable": false,
      "stateMutability": "nonpayable",
      "type": "function"
    }
  ],
  "bytecode": "0x608060405260008060006101000a81548160ff0219169083600481111561002257fe5b021790555060008060016101000a81548160ff02191690831515021790555042600155600260065534801561005657600080fd5b5033600360006101000a81548173ffffffffffffffffffffffffffffffffffffffff021916908373ffffffffffffffffffffffffffffffffffffffff160217905550612324806100a76000396000f300608060405260043610610169576000357c0100000000000000000000000000000000000000000000000000000000900463ffffffff168062c51f8c1461016b57806306ead22e146101fb57806312065fe01461026857806312253a6c14610293578063176366c4146102aa57806326215912146102ed5780633b522e23146103045780633d847dda1461032f5780633f683b6a14610404578063476343ee146104335780634cca59cf1461044a5780635c4d0421146104b35780636ca7f95c146104de5780637dc673bc146105095780638119cd541461052057806388e4f2d1146105655780638da5cb5b146105925780639142b757146105e95780639b271c0a14610600578063a2f29fbf1461064d578063a7cc6d25146106a8578063b46bff8914610704578063c040e6b81461075b578063c4bc5da514610794578063d8270dce146107ab578063db2e21bc146107d6578063e581f9ee146107ed578063fdd6f30014610818575b005b34801561017757600080fd5b5061018061082f565b6040518080602001828103825283818151815260200191508051906020019080838360005b838110156101c05780820151818401526020810190506101a5565b50505050905090810190601f1680156101ed5780820380516001836020036101000a031916815260200191505b509250505060405180910390f35b34801561020757600080fd5b50610226600480360381019080803590602001909291905050506108cd565b604051808273ffffffffffffffffffffffffffffffffffffffff1673ffffffffffffffffffffffffffffffffffffffff16815260200191505060405180910390f35b34801561027457600080fd5b5061027d61090b565b6040518082815260200191505060405180910390f35b34801561029f57600080fd5b506102a861092a565b005b3480156102b657600080fd5b506102eb600480360381019080803573ffffffffffffffffffffffffffffffffffffffff169060200190929190505050610a0c565b005b3480156102f957600080fd5b50610302610beb565b005b34801561031057600080fd5b50610319610d1c565b6040518082815260200191505060405180910390f35b34801561033b57600080fd5b50610370600480360381019080803573ffffffffffffffffffffffffffffffffffffffff169060200190929190505050610d22565b604051808060200185815260200184815260200183151515158152602001828103825286818151815260200191508051906020019080838360005b838110156103c65780820151818401526020810190506103ab565b50505050905090810190601f1680156103f35780820380516001836020036101000a031916815260200191505b509550505050505060405180910390f35b34801561041057600080fd5b50610419610df7565b604051808215151515815260200191505060405180910390f35b34801561043f57600080fd5b50610448610e0a565b005b34801561045657600080fd5b506104b1600480360381019080803590602001908201803590602001908080601f0160208091040260200160405190810160405280939291908181526020018383808284378201915050505050509192919290505050610f79565b005b3480156104bf57600080fd5b506104c86110a9565b6040518082815260200191505060405180910390f35b3480156104ea57600080fd5b506104f36110af565b6040518082815260200191505060405180910390f35b34801561051557600080fd5b5061051e6110b5565b005b34801561052c57600080fd5b5061054b600480360381019080803590602001909291905050506111d5565b604051808215151515815260200191505060405180910390f35b34801561057157600080fd5b50610590600480360381019080803590602001909291905050506112dd565b005b34801561059e57600080fd5b506105a761141b565b604051808273ffffffffffffffffffffffffffffffffffffffff1673ffffffffffffffffffffffffffffffffffffffff16815260200191505060405180910390f35b3480156105f557600080fd5b506105fe611441565b005b34801561060c57600080fd5b5061064b600480360381019080803573ffffffffffffffffffffffffffffffffffffffff16906020019092919080359060200190929190505050611561565b005b34801561065957600080fd5b5061068e600480360381019080803573ffffffffffffffffffffffffffffffffffffffff1690602001909291905050506116c2565b604051808215151515815260200191505060405180910390f35b610702600480360381019080803590602001908201803590602001908080601f0160208091040260200160405190810160405280939291908181526020018383808284378201915050505050509192919290505050611765565b005b34801561071057600080fd5b50610719611c1b565b604051808273ffffffffffffffffffffffffffffffffffffffff1673ffffffffffffffffffffffffffffffffffffffff16815260200191505060405180910390f35b34801561076757600080fd5b50610770611c41565b6040518082600481111561078057fe5b60ff16815260200191505060405180910390f35b3480156107a057600080fd5b506107a9611c53565b005b3480156107b757600080fd5b506107c0611d34565b6040518082815260200191505060405180910390f35b3480156107e257600080fd5b506107eb611d3a565b005b3480156107f957600080fd5b50610802611f57565b6040518082815260200191505060405180910390f35b34801561082457600080fd5b5061082d611f5d565b005b60048054600181600116156101000203166002900480601f0160208091040260200160405190810160405280929190818152602001828054600181600116156101000203166002900480156108c55780601f1061089a576101008083540402835291602001916108c5565b820191906000526020600020905b8154815290600101906020018083116108a857829003601f168201915b505050505081565b600a818154811015156108dc57fe5b906000526020600020016000915054906101000a900473ffffffffffffffffffffffffffffffffffffffff1681565b60003073ffffffffffffffffffffffffffffffffffffffff1631905090565b600360009054906101000a900473ffffffffffffffffffffffffffffffffffffffff1673ffffffffffffffffffffffffffffffffffffffff163373ffffffffffffffffffffffffffffffffffffffff161415156109ef576040517f08c379a00000000000000000000000000000000000000000000000000000000081526004018080602001828103825260188152602001807f4f6e79206f6e6c79417574686f72697a6564204f776e6572000000000000000081525060200191505060405180910390fd5b6001600060016101000a81548160ff021916908315150217905550565b600360009054906101000a900473ffffffffffffffffffffffffffffffffffffffff1673ffffffffffffffffffffffffffffffffffffffff163373ffffffffffffffffffffffffffffffffffffffff16141515610ad1576040517f08c379a00000000000000000000000000000000000000000000000000000000081526004018080602001828103825260188152602001807f4f6e79206f6e6c79417574686f72697a6564204f776e6572000000000000000081525060200191505060405180910390fd5b600060019054906101000a900460ff16151515610aed57600080fd5b6000806004811115610afb57fe5b6000809054906101000a900460ff166004811115610b1557fe5b141515610b2157600080fd5b81600260006101000a81548173ffffffffffffffffffffffffffffffffffffffff021916908373ffffffffffffffffffffffffffffffffffffffff1602179055507fe0f5eccf6cf43229d5bb7f4914ea17da1b2b84d3a3c99c1ae05c791acfc3469d600260009054906101000a900473ffffffffffffffffffffffffffffffffffffffff16604051808273ffffffffffffffffffffffffffffffffffffffff1673ffffffffffffffffffffffffffffffffffffffff16815260200191505060405180910390a15050565b600260009054906101000a900473ffffffffffffffffffffffffffffffffffffffff1673ffffffffffffffffffffffffffffffffffffffff163373ffffffffffffffffffffffffffffffffffffffff16141515610cb0576040517f08c379a000000000000000000000000000000000000000000000000000000000815260040180806020018281038252600c8152602001807f4f6e6c792054656163686572000000000000000000000000000000000000000081525060200191505060405180910390fd5b600060019054906101000a900460ff16151515610ccc57600080fd5b6000806004811115610cda57fe5b6000809054906101000a900460ff166004811115610cf457fe5b141515610d0057600080fd5b6000600754111515610d1157600080fd5b610d1961207d565b50565b60065481565b600b602052806000526040600020600091509050806000018054600181600116156101000203166002900480601f016020809104026020016040519081016040528092919081815260200182805460018160011615610100020316600290048015610dce5780601f10610da357610100808354040283529160200191610dce565b820191906000526020600020905b815481529060010190602001808311610db157829003601f168201915b5050505050908060010154908060020154908060030160009054906101000a900460ff16905084565b600060019054906101000a900460ff1681565b6000600260009054906101000a900473ffffffffffffffffffffffffffffffffffffffff1673ffffffffffffffffffffffffffffffffffffffff163373ffffffffffffffffffffffffffffffffffffffff16141515610ed1576040517f08c379a000000000000000000000000000000000000000000000000000000000815260040180806020018281038252600c8152602001807f4f6e6c792054656163686572000000000000000000000000000000000000000081525060200191505060405180910390fd5b600060019054906101000a900460ff16151515610eed57600080fd5b6004806004811115610efb57fe5b6000809054906101000a900460ff166004811115610f1557fe5b141515610f2157600080fd5b600854915060006008819055503373ffffffffffffffffffffffffffffffffffffffff166108fc839081150290604051600060405180830381858888f19350505050158015610f74573d6000803e3d6000fd5b505050565b600260009054906101000a900473ffffffffffffffffffffffffffffffffffffffff1673ffffffffffffffffffffffffffffffffffffffff163373ffffffffffffffffffffffffffffffffffffffff1614151561103e576040517f08c379a000000000000000000000000000000000000000000000000000000000815260040180806020018281038252600c8152602001807f4f6e6c792054656163686572000000000000000000000000000000000000000081525060200191505060405180910390fd5b600060019054906101000a900460ff1615151561105a57600080fd5b600080600481111561106857fe5b6000809054906101000a900460ff16600481111561108257fe5b14151561108e57600080fd5b81600490805190602001906110a4929190612253565b505050565b60075481565b60085481565b600260009054906101000a900473ffffffffffffffffffffffffffffffffffffffff1673ffffffffffffffffffffffffffffffffffffffff163373ffffffffffffffffffffffffffffffffffffffff1614151561117a576040517f08c379a000000000000000000000000000000000000000000000000000000000815260040180806020018281038252600c8152602001807f4f6e6c792054656163686572000000000000000000000000000000000000000081525060200191505060405180910390fd5b600060019054906101000a900460ff1615151561119657600080fd5b60018060048111156111a457fe5b6000809054906101000a900460ff1660048111156111be57fe5b1415156111ca57600080fd5b6111d26120bc565b50565b60008060019054906101000a900460ff161515156111f257600080fd5b600480600481111561120057fe5b6000809054906101000a900460ff16600481111561121a57fe5b14151561122657600080fd5b60001515600b60003373ffffffffffffffffffffffffffffffffffffffff1673ffffffffffffffffffffffffffffffffffffffff16815260200190815260200160002060030160009054906101000a900460ff16151514156112d25782600b60003373ffffffffffffffffffffffffffffffffffffffff1673ffffffffffffffffffffffffffffffffffffffff16815260200190815260200160002060010181905550600191506112d7565b600091505b50919050565b600260009054906101000a900473ffffffffffffffffffffffffffffffffffffffff1673ffffffffffffffffffffffffffffffffffffffff163373ffffffffffffffffffffffffffffffffffffffff161415156113a2576040517f08c379a000000000000000000000000000000000000000000000000000000000815260040180806020018281038252600c8152602001807f4f6e6c792054656163686572000000000000000000000000000000000000000081525060200191505060405180910390fd5b600060019054906101000a900460ff161515156113be57600080fd5b60008060048111156113cc57fe5b6000809054906101000a900460ff1660048111156113e657fe5b1415156113f257600080fd5b60008211156114075781600781905550611417565b670de0b6b3a76400006007819055505b5050565b600360009054906101000a900473ffffffffffffffffffffffffffffffffffffffff1681565b600260009054906101000a900473ffffffffffffffffffffffffffffffffffffffff1673ffffffffffffffffffffffffffffffffffffffff163373ffffffffffffffffffffffffffffffffffffffff16141515611506576040517f08c379a000000000000000000000000000000000000000000000000000000000815260040180806020018281038252600c8152602001807f4f6e6c792054656163686572000000000000000000000000000000000000000081525060200191505060405180910390fd5b600060019054906101000a900460ff1615151561152257600080fd5b600280600481111561153057fe5b6000809054906101000a900460ff16600481111561154a57fe5b14151561155657600080fd5b61155e6120fb565b50565b600260009054906101000a900473ffffffffffffffffffffffffffffffffffffffff1673ffffffffffffffffffffffffffffffffffffffff163373ffffffffffffffffffffffffffffffffffffffff16141515611626576040517f08c379a000000000000000000000000000000000000000000000000000000000815260040180806020018281038252600c8152602001807f4f6e6c792054656163686572000000000000000000000000000000000000000081525060200191505060405180910390fd5b600060019054906101000a900460ff1615151561164257600080fd5b600380600481111561165057fe5b6000809054906101000a900460ff16600481111561166a57fe5b14151561167657600080fd5b81600b60008573ffffffffffffffffffffffffffffffffffffffff1673ffffffffffffffffffffffffffffffffffffffff16815260200190815260200160002060020181905550505050565b600080600090505b600a8054905081101561175a578273ffffffffffffffffffffffffffffffffffffffff16600a828154811015156116fd57fe5b9060005260206000200160009054906101000a900473ffffffffffffffffffffffffffffffffffffffff1673ffffffffffffffffffffffffffffffffffffffff16141561174d576001915061175f565b80806001019150506116ca565b600091505b50919050565b600080600060019054906101000a900460ff1615151561178457600080fd5b600180600481111561179257fe5b6000809054906101000a900460ff1660048111156117ac57fe5b1415156117b857600080fd5b600260009054906101000a900473ffffffffffffffffffffffffffffffffffffffff1673ffffffffffffffffffffffffffffffffffffffff163373ffffffffffffffffffffffffffffffffffffffff161415151561187e576040517f08c379a00000000000000000000000000000000000000000000000000000000081526004018080602001828103825260198152602001807f546561636865722063616e6e6f742062652073747564656e740000000000000081525060200191505060405180910390fd5b600360009054906101000a900473ffffffffffffffffffffffffffffffffffffffff1673ffffffffffffffffffffffffffffffffffffffff163373ffffffffffffffffffffffffffffffffffffffff1614151515611944576040517f08c379a00000000000000000000000000000000000000000000000000000000081526004018080602001828103825260178152602001807f4f776e65722063616e6e6f742062652073747564656e7400000000000000000081525060200191505060405180910390fd5b6006546005541015156119bf576040517f08c379a000000000000000000000000000000000000000000000000000000000815260040180806020018281038252601e8152602001807f436c617373206861732072656163686564206d61782073747564656e7473000081525060200191505060405180910390fd5b6119c8336116c2565b151515611a3d576040517f08c379a000000000000000000000000000000000000000000000000000000000815260040180806020018281038252601a8152602001807f53747564656e7420616c7265616479207265676973746572656400000000000081525060200191505060405180910390fd5b6007543410151515611ab7576040517f08c379a000000000000000000000000000000000000000000000000000000000815260040180806020018281038252601b8152602001807f53656e642076616c7565203d20746f2074756974696f6e20666565000000000081525060200191505060405180910390fd5b349250611ac68360075461213a565b9150600a3390806001815401808255809150509060018203906000526020600020016000909192909190916101000a81548173ffffffffffffffffffffffffffffffffffffffff021916908373ffffffffffffffffffffffffffffffffffffffff1602179055505083600b60003373ffffffffffffffffffffffffffffffffffffffff1673ffffffffffffffffffffffffffffffffffffffff1681526020019081526020016000206000019080519060200190611b84929190612253565b50600560008154809291906001019190505550611ba5600854600754612167565b6008819055506000821115611c00573373ffffffffffffffffffffffffffffffffffffffff166108fc839081150290604051600060405180830381858888f19350505050158015611bfa573d6000803e3d6000fd5b50600091505b6006546005541415611c1557611c146120bc565b5b50505050565b600260009054906101000a900473ffffffffffffffffffffffffffffffffffffffff1681565b6000809054906101000a900460ff1681565b600360009054906101000a900473ffffffffffffffffffffffffffffffffffffffff1673ffffffffffffffffffffffffffffffffffffffff163373ffffffffffffffffffffffffffffffffffffffff16141515611d18576040517f08c379a00000000000000000000000000000000000000000000000000000000081526004018080602001828103825260188152602001807f4f6e79206f6e6c79417574686f72697a6564204f776e6572000000000000000081525060200191505060405180910390fd5b60008060016101000a81548160ff021916908315150217905550565b60015481565b600060019054906101000a900460ff161515611d5557600080fd5b611d5e336116c2565b1515611dd2576040517f08c379a00000000000000000000000000000000000000000000000000000000081526004018080602001828103825260208152602001807f4d75737420626520612073747564656e742077686f207265676973746572656481525060200191505060405180910390fd5b60001515600b60003373ffffffffffffffffffffffffffffffffffffffff1673ffffffffffffffffffffffffffffffffffffffff16815260200190815260200160002060030160009054906101000a900460ff161515141515611e9d576040517f08c379a00000000000000000000000000000000000000000000000000000000081526004018080602001828103825260108152602001807f526566756e64656420416c72656164790000000000000000000000000000000081525060200191505060405180910390fd5b6001600b60003373ffffffffffffffffffffffffffffffffffffffff1673ffffffffffffffffffffffffffffffffffffffff16815260200190815260200160002060030160006101000a81548160ff021916908315150217905550611f0660085460075461213a565b6008819055503373ffffffffffffffffffffffffffffffffffffffff166108fc6007549081150290604051600060405180830381858888f19350505050158015611f54573d6000803e3d6000fd5b50565b60055481565b600260009054906101000a900473ffffffffffffffffffffffffffffffffffffffff1673ffffffffffffffffffffffffffffffffffffffff163373ffffffffffffffffffffffffffffffffffffffff16141515612022576040517f08c379a000000000000000000000000000000000000000000000000000000000815260040180806020018281038252600c8152602001807f4f6e6c792054656163686572000000000000000000000000000000000000000081525060200191505060405180910390fd5b600060019054906101000a900460ff1615151561203e57600080fd5b600380600481111561204c57fe5b6000809054906101000a900460ff16600481111561206657fe5b14151561207257600080fd5b61207a612194565b50565b600080600481111561208b57fe5b6000809054906101000a900460ff1660048111156120a557fe5b1415156120b157600080fd5b6120b96121d3565b50565b60018060048111156120ca57fe5b6000809054906101000a900460ff1660048111156120e457fe5b1415156120f057600080fd5b6120f86121d3565b50565b600280600481111561210957fe5b6000809054906101000a900460ff16600481111561212357fe5b14151561212f57600080fd5b6121376121d3565b50565b600080600981905550612156828461221e90919063ffffffff16565b600981905550600954905092915050565b600080600981905550612183828461223790919063ffffffff16565b600981905550600954905092915050565b60038060048111156121a257fe5b6000809054906101000a900460ff1660048111156121bc57fe5b1415156121c857600080fd5b6121d06121d3565b50565b60016000809054906101000a900460ff1660048111156121ef57fe5b0160048111156121fb57fe5b6000806101000a81548160ff0219169083600481111561221757fe5b0217905550565b600082821115151561222c57fe5b818303905092915050565b6000818301905082811015151561224a57fe5b80905092915050565b828054600181600116156101000203166002900490600052602060002090601f016020900481019282601f1061229457805160ff19168380011785556122c2565b828001600101855582156122c2579182015b828111156122c15782518255916020019190600101906122a6565b5b5090506122cf91906122d3565b5090565b6122f591905b808211156122f15760008160009055506001016122d9565b5090565b905600a165627a7a7230582027ffa63af05b2f8dd54fd279c8c49eeb95793585660834a17d0450b5306caaa20029",
  "source": "pragma solidity ^0.4.18;\n\nimport \"openzeppelin-solidity/contracts/math/SafeMath.sol\";\n\n\ncontract Tuition {\nusing SafeMath for uint256;\n\n    /*\n    State Machine Design for Tuition Contract\n    Stages of tuition\n    */\n    enum Stages {\n        Preparation,\n        Registration,\n        Started,\n        Ended,\n        Review\n    }\n\n    //Initialize Preparation Stage\n    Stages public stage = Stages.Preparation;\n\n    modifier atStage(Stages _stage) {\n        require(stage == _stage);\n        _;\n    }\n\n    function nextStage() internal {\n        stage = Stages(uint(stage) + 1);\n    }\n\n    // This modifier goes to the next stage\n    // after the function is done.\n    modifier transitionNext()\n    {\n        _;\n        nextStage();\n    }\n\n    function setStageToRegistration() internal atStage(Stages.Preparation) transitionNext{\n        \n    }\n\n    function setStageToStarted() internal atStage(Stages.Registration) transitionNext{\n\n    }\n\n    function setStageToEnded()  internal atStage(Stages.Started) transitionNext{\n\n    }\n\n    function setStageToReview()  internal atStage(Stages.Ended) transitionNext{\n\n    }\n\n\n    /*\n    Circuit Breaker Design for Tuition Contract\n    */\n    bool public isStopped = false;\n    \n    modifier notStopped {\n        require(!isStopped);\n        _;\n    }\n    \n    modifier onlyWhenStopped {\n        require(isStopped);\n        _;\n    }\n\n    modifier onlyAuthorized {\n        // Check for authorization of msg.sender here\n        require(msg.sender == owner, \"Ony onlyAuthorized Owner\");\n        _;\n    }\n\n    function stopContract() public onlyAuthorized {\n        isStopped = true;\n    }\n\n    function resumeContract() public onlyAuthorized {\n        isStopped = false;\n    }\n    \n    function emergencyWithdraw() public onlyWhenStopped {\n        /*Emergency withdraw happening here\n          Only Students who registered can withdraw\n          Student can only withdraw once\n        */\n        require(checkStudentExists(msg.sender), \"Must be a student who registered\");\n        require(studentInfo[msg.sender].refunded == false,\"Refunded Already\");\n        studentInfo[msg.sender].refunded = true;\n        feeCollected = SafeMinus(feeCollected,tuitionFee);\n        msg.sender.transfer(tuitionFee);\n     \n    }\n\n\n    /*\n    Declartion of variables used in contract\n    */\n\n    uint public creationTime = now;\n    address public teacher;\n    address public owner;\n    string public className;\n\n    uint256 public studentCount;\n    uint256 public maxStudents = 2;\n    uint256 public tuitionFee;\n    uint256 public feeCollected;\n    uint256 result;\n    address[] public students;\n    \n\n    struct Student {\n        string studentName;\n        uint256 teacherRating;\n        uint256 grade;\n        bool refunded;\n    }\n    //The address of the student map to the structure\n    mapping(address => Student) public studentInfo;\n\n    event logSetTeacher(address teacherAddr);\n\n\n    //Constructor \n    function Tuition() public{\n        owner = msg.sender;\n        \n    }\n    \n    function setClassName(string _className) public onlyTeacher notStopped atStage(Stages.Preparation) {\n        className = _className;\n        \n    }\n    \n    function setTeacher(address _teacher) public onlyAuthorized notStopped atStage(Stages.Preparation){\n        teacher = _teacher;\n        emit logSetTeacher(teacher);\n    }\n    \n    function setTuitionFee(uint256 _tuitionFee )public onlyTeacher notStopped atStage(Stages.Preparation) {\n        if(_tuitionFee > 0) {\n            tuitionFee = _tuitionFee;\n        }else{\n            tuitionFee = 1 ether;\n        }\n    }\n    \n    function publishClass() public onlyTeacher notStopped atStage(Stages.Preparation){\n         require(tuitionFee > 0);\n         setStageToRegistration();\n    }\n    function endClass() public onlyTeacher notStopped atStage(Stages.Started){\n        setStageToEnded();\n    }\n    \n    function reviewClass() public onlyTeacher notStopped atStage(Stages.Ended){\n        setStageToReview();\n    }\n    \n    \n    function() public payable {\n    // this function enables the contract to receive funds\n    }\n    \n    function getBalance() public view returns (uint256) {\n        return address(this).balance;\n    }\n    \n    function SafeAdd(uint256 a, uint256 b) internal returns (uint256) {\n      result = 0;\n      result = a.add(b);\n      return result;\n    }\n    \n    function SafeMinus(uint256 a, uint256 b)internal returns (uint256) {\n      result = 0;\n      result = a.sub(b);\n      return result;\n    }\n\n    \n\n    modifier onlyTeacher{\n        require(msg.sender == teacher, \"Only Teacher\");\n        _;\n\n    }\n    \n    function checkStudentExists(address student) public view returns(bool){\n        for(uint256 i = 0; i < students.length; i++){\n            if(students[i] == student) return true;\n        }\n        return false;\n    }\n\n    event registerStudent(address student);\n    \n    function registerTuition(string _studentName) public payable notStopped atStage(Stages.Registration){\n        require(msg.sender != teacher,\"Teacher cannot be student\");\n        require(msg.sender != owner,\"Owner cannot be student\");\n        require(studentCount<maxStudents,\"Class has reached max students\");\n        require(!checkStudentExists(msg.sender), \"Student already registered\");\n        require(msg.value >= tuitionFee, \"Send value = to tuition fee\");\n        \n        uint256 receivedAmt = msg.value;\n        uint256 ethToReturn = SafeMinus(receivedAmt, tuitionFee);\n        \n        \n        //Store student into student array\n        students.push(msg.sender);\n        studentInfo[msg.sender].studentName = _studentName;\n        studentCount ++;\n        \n        feeCollected = SafeAdd(feeCollected,tuitionFee);\n        \n        \n        if(ethToReturn > 0){\n            msg.sender.transfer(ethToReturn);\n            ethToReturn = 0;\n            \n        } \n        \n        if(studentCount == maxStudents){\n            setStageToStarted();\n        }\n        \n    }\n    \n    function closeRegistration() public onlyTeacher notStopped atStage(Stages.Registration){\n        setStageToStarted();\n    }\n    \n    function recordGrade(address studentAddress,uint256 _grade) public onlyTeacher notStopped atStage(Stages.Ended){\n        \n        studentInfo[studentAddress].grade = _grade;\n        \n    }\n    \n    function giveTeacherRating(uint256 rating) public notStopped atStage(Stages.Review) returns (bool) {\n        //msg.sender must be a student and have not refunded fees\n         if(studentInfo[msg.sender].refunded == false){\n             studentInfo[msg.sender].teacherRating =rating;\n             return true;\n         }\n         return false;\n    }\n  \n   \n\n    function withdrawFees() public onlyTeacher notStopped atStage(Stages.Review){\n        \n        uint amount = feeCollected;\n        feeCollected = 0;\n        msg.sender.transfer(amount);\n\n    }\n\n  \n\n\n\n\n\n\n\n\n}",
  "sourcePath": "/home/louis/Desktop/blockchain_project/contracts/Tuition.sol",
  "compiler": {
    "name": "solc",
    "version": "0.4.24+commit.e67f0147.Emscripten.clang"
  },
  "schemaVersion": "2.0.1",
  "updatedAt": "2018-08-26T03:31:09.171Z"
}