{
  "contractName": "Tuition",
  "abi": [
    {
      "constant": true,
      "inputs": [],
      "name": "className",
      "outputs": [
        {
          "name": "",
          "type": "string"
        }
      ],
      "payable": false,
      "stateMutability": "view",
      "type": "function"
    },
    {
      "constant": true,
      "inputs": [
        {
          "name": "",
          "type": "uint256"
        }
      ],
      "name": "students",
      "outputs": [
        {
          "name": "",
          "type": "address"
        }
      ],
      "payable": false,
      "stateMutability": "view",
      "type": "function"
    },
    {
      "constant": true,
      "inputs": [],
      "name": "maxStudents",
      "outputs": [
        {
          "name": "",
          "type": "uint256"
        }
      ],
      "payable": false,
      "stateMutability": "view",
      "type": "function"
    },
    {
      "constant": true,
      "inputs": [
        {
          "name": "",
          "type": "address"
        }
      ],
      "name": "studentInfo",
      "outputs": [
        {
          "name": "studentName",
          "type": "string"
        },
        {
          "name": "teacherRating",
          "type": "uint256"
        },
        {
          "name": "grade",
          "type": "uint256"
        }
      ],
      "payable": false,
      "stateMutability": "view",
      "type": "function"
    },
    {
      "constant": true,
      "inputs": [],
      "name": "tuitionFee",
      "outputs": [
        {
          "name": "",
          "type": "uint256"
        }
      ],
      "payable": false,
      "stateMutability": "view",
      "type": "function"
    },
    {
      "constant": true,
      "inputs": [],
      "name": "feeCollected",
      "outputs": [
        {
          "name": "",
          "type": "uint256"
        }
      ],
      "payable": false,
      "stateMutability": "view",
      "type": "function"
    },
    {
      "constant": true,
      "inputs": [],
      "name": "teacher",
      "outputs": [
        {
          "name": "",
          "type": "address"
        }
      ],
      "payable": false,
      "stateMutability": "view",
      "type": "function"
    },
    {
      "constant": true,
      "inputs": [],
      "name": "stage",
      "outputs": [
        {
          "name": "",
          "type": "uint8"
        }
      ],
      "payable": false,
      "stateMutability": "view",
      "type": "function"
    },
    {
      "constant": true,
      "inputs": [],
      "name": "creationTime",
      "outputs": [
        {
          "name": "",
          "type": "uint256"
        }
      ],
      "payable": false,
      "stateMutability": "view",
      "type": "function"
    },
    {
      "constant": true,
      "inputs": [],
      "name": "studentCount",
      "outputs": [
        {
          "name": "",
          "type": "uint256"
        }
      ],
      "payable": false,
      "stateMutability": "view",
      "type": "function"
    },
    {
      "inputs": [
        {
          "name": "_tuitionFee",
          "type": "uint256"
        },
        {
          "name": "_className",
          "type": "string"
        }
      ],
      "payable": false,
      "stateMutability": "nonpayable",
      "type": "constructor"
    },
    {
      "payable": true,
      "stateMutability": "payable",
      "type": "fallback"
    },
    {
      "anonymous": false,
      "inputs": [
        {
          "indexed": false,
          "name": "student",
          "type": "address"
        }
      ],
      "name": "registerStudent",
      "type": "event"
    },
    {
      "constant": true,
      "inputs": [],
      "name": "getBalance",
      "outputs": [
        {
          "name": "",
          "type": "uint256"
        }
      ],
      "payable": false,
      "stateMutability": "view",
      "type": "function"
    },
    {
      "constant": true,
      "inputs": [
        {
          "name": "student",
          "type": "address"
        }
      ],
      "name": "checkStudentExists",
      "outputs": [
        {
          "name": "",
          "type": "bool"
        }
      ],
      "payable": false,
      "stateMutability": "view",
      "type": "function"
    },
    {
      "constant": false,
      "inputs": [
        {
          "name": "_studentName",
          "type": "string"
        }
      ],
      "name": "registerTuition",
      "outputs": [],
      "payable": true,
      "stateMutability": "payable",
      "type": "function"
    },
    {
      "constant": false,
      "inputs": [],
      "name": "closeRegistration",
      "outputs": [],
      "payable": false,
      "stateMutability": "nonpayable",
      "type": "function"
    },
    {
      "constant": false,
      "inputs": [],
      "name": "withdawFees",
      "outputs": [],
      "payable": false,
      "stateMutability": "nonpayable",
      "type": "function"
    }
  ],
  "bytecode": "0x608060405260008060006101000a81548160ff0219169083600381111561002257fe5b021790555042600155600260055534801561003c57600080fd5b5060405162000fb838038062000fb8833981018060405281019080805190602001909291908051820192919050505033600260006101000a81548173ffffffffffffffffffffffffffffffffffffffff021916908373ffffffffffffffffffffffffffffffffffffffff16021790555080600390805190602001906100c29291906100ef565b5060008211156100d857816006819055506100e8565b670de0b6b3a76400006006819055505b5050610194565b828054600181600116156101000203166002900490600052602060002090601f016020900481019282601f1061013057805160ff191683800117855561015e565b8280016001018555821561015e579182015b8281111561015d578251825591602001919060010190610142565b5b50905061016b919061016f565b5090565b61019191905b8082111561018d576000816000905550600101610175565b5090565b90565b610e1480620001a46000396000f3006080604052600436106100da576000357c0100000000000000000000000000000000000000000000000000000000900463ffffffff168062c51f8c146100dc57806306ead22e1461016c57806312065fe0146101d95780633b522e23146102045780633d847dda1461022f5780635c4d0421146102f95780636ca7f95c146103245780637dc673bc1461034f578063a2f29fbf14610366578063a7cc6d25146103c1578063b46bff891461041d578063c040e6b814610474578063d8270dce146104ad578063e581f9ee146104d8578063f51c0b8114610503575b005b3480156100e857600080fd5b506100f161051a565b6040518080602001828103825283818151815260200191508051906020019080838360005b83811015610131578082015181840152602081019050610116565b50505050905090810190601f16801561015e5780820380516001836020036101000a031916815260200191505b509250505060405180910390f35b34801561017857600080fd5b50610197600480360381019080803590602001909291905050506105b8565b604051808273ffffffffffffffffffffffffffffffffffffffff1673ffffffffffffffffffffffffffffffffffffffff16815260200191505060405180910390f35b3480156101e557600080fd5b506101ee6105f6565b6040518082815260200191505060405180910390f35b34801561021057600080fd5b50610219610615565b6040518082815260200191505060405180910390f35b34801561023b57600080fd5b50610270600480360381019080803573ffffffffffffffffffffffffffffffffffffffff16906020019092919050505061061b565b6040518080602001848152602001838152602001828103825285818151815260200191508051906020019080838360005b838110156102bc5780820151818401526020810190506102a1565b50505050905090810190601f1680156102e95780820380516001836020036101000a031916815260200191505b5094505050505060405180910390f35b34801561030557600080fd5b5061030e6106dd565b6040518082815260200191505060405180910390f35b34801561033057600080fd5b506103396106e3565b6040518082815260200191505060405180910390f35b34801561035b57600080fd5b506103646106e9565b005b34801561037257600080fd5b506103a7600480360381019080803573ffffffffffffffffffffffffffffffffffffffff1690602001909291905050506107ed565b604051808215151515815260200191505060405180910390f35b61041b600480360381019080803590602001908201803590602001908080601f0160208091040260200160405190810160405280939291908181526020018383808284378201915050505050509192919290505050610890565b005b34801561042957600080fd5b50610432610b22565b604051808273ffffffffffffffffffffffffffffffffffffffff1673ffffffffffffffffffffffffffffffffffffffff16815260200191505060405180910390f35b34801561048057600080fd5b50610489610b48565b6040518082600381111561049957fe5b60ff16815260200191505060405180910390f35b3480156104b957600080fd5b506104c2610b5a565b6040518082815260200191505060405180910390f35b3480156104e457600080fd5b506104ed610b60565b6040518082815260200191505060405180910390f35b34801561050f57600080fd5b50610518610b66565b005b60038054600181600116156101000203166002900480601f0160208091040260200160405190810160405280929190818152602001828054600181600116156101000203166002900480156105b05780601f10610585576101008083540402835291602001916105b0565b820191906000526020600020905b81548152906001019060200180831161059357829003601f168201915b505050505081565b6008818154811015156105c757fe5b906000526020600020016000915054906101000a900473ffffffffffffffffffffffffffffffffffffffff1681565b60003073ffffffffffffffffffffffffffffffffffffffff1631905090565b60055481565b6009602052806000526040600020600091509050806000018054600181600116156101000203166002900480601f0160208091040260200160405190810160405280929190818152602001828054600181600116156101000203166002900480156106c75780601f1061069c576101008083540402835291602001916106c7565b820191906000526020600020905b8154815290600101906020018083116106aa57829003601f168201915b5050505050908060010154908060020154905083565b60065481565b60075481565b600260009054906101000a900473ffffffffffffffffffffffffffffffffffffffff1673ffffffffffffffffffffffffffffffffffffffff163373ffffffffffffffffffffffffffffffffffffffff161415156107ae576040517f08c379a000000000000000000000000000000000000000000000000000000000815260040180806020018281038252600c8152602001807f4f6e6c792054656163686572000000000000000000000000000000000000000081525060200191505060405180910390fd5b60008060038111156107bc57fe5b6000809054906101000a900460ff1660038111156107d657fe5b1415156107e257600080fd5b6107ea610cb9565b50565b600080600090505b600880549050811015610885578273ffffffffffffffffffffffffffffffffffffffff1660088281548110151561082857fe5b9060005260206000200160009054906101000a900473ffffffffffffffffffffffffffffffffffffffff1673ffffffffffffffffffffffffffffffffffffffff161415610878576001915061088a565b80806001019150506107f5565b600091505b50919050565b60008080600381111561089f57fe5b6000809054906101000a900460ff1660038111156108b957fe5b1415156108c557600080fd5b6005546004541015156108d757600080fd5b6108e0336107ed565b151515610955576040517f08c379a000000000000000000000000000000000000000000000000000000000815260040180806020018281038252601a8152602001807f53747564656e7420616c7265616479207265676973746572656400000000000081525060200191505060405180910390fd5b60065434101515156109cf576040517f08c379a00000000000000000000000000000000000000000000000000000000081526004018080602001828103825260168152602001807f54756974696f6e2046656520697320312045746865720000000000000000000081525060200191505060405180910390fd5b6006543403915060083390806001815401808255809150509060018203906000526020600020016000909192909190916101000a81548173ffffffffffffffffffffffffffffffffffffffff021916908373ffffffffffffffffffffffffffffffffffffffff1602179055505082600960003373ffffffffffffffffffffffffffffffffffffffff1673ffffffffffffffffffffffffffffffffffffffff1681526020019081526020016000206000019080519060200190610a92929190610d43565b506004600081548092919060010191905055506006546007600082825401925050819055506000821115610b08573373ffffffffffffffffffffffffffffffffffffffff166108fc839081150290604051600060405180830381858888f19350505050158015610b06573d6000803e3d6000fd5b505b6005546004541415610b1d57610b1c610cb9565b5b505050565b600260009054906101000a900473ffffffffffffffffffffffffffffffffffffffff1681565b6000809054906101000a900460ff1681565b60015481565b60045481565b6000600260009054906101000a900473ffffffffffffffffffffffffffffffffffffffff1673ffffffffffffffffffffffffffffffffffffffff163373ffffffffffffffffffffffffffffffffffffffff16141515610c2d576040517f08c379a000000000000000000000000000000000000000000000000000000000815260040180806020018281038252600c8152602001807f4f6e6c792054656163686572000000000000000000000000000000000000000081525060200191505060405180910390fd5b6003806003811115610c3b57fe5b6000809054906101000a900460ff166003811115610c5557fe5b141515610c6157600080fd5b600754915060006007819055503373ffffffffffffffffffffffffffffffffffffffff166108fc839081150290604051600060405180830381858888f19350505050158015610cb4573d6000803e3d6000fd5b505050565b6000806003811115610cc757fe5b6000809054906101000a900460ff166003811115610ce157fe5b141515610ced57600080fd5b610cf5610cf8565b50565b60016000809054906101000a900460ff166003811115610d1457fe5b016003811115610d2057fe5b6000806101000a81548160ff02191690836003811115610d3c57fe5b0217905550565b828054600181600116156101000203166002900490600052602060002090601f016020900481019282601f10610d8457805160ff1916838001178555610db2565b82800160010185558215610db2579182015b82811115610db1578251825591602001919060010190610d96565b5b509050610dbf9190610dc3565b5090565b610de591905b80821115610de1576000816000905550600101610dc9565b5090565b905600a165627a7a723058203dfd75de743ac561f855878c42f73522bce551dae9bd49fc9c6b0324af7708e80029",
  "source": "pragma solidity ^0.4.18;\n\ncontract Tuition {\n\n    //Stages of tuition\n    enum Stages {\n        Registration,\n        Started,\n        Ended,\n        Review\n    }\n\n    //This is the current stage\n    Stages public stage = Stages.Registration;\n\n    uint public creationTime = now;\n\n    modifier atStage(Stages _stage) {\n        require(stage == _stage);\n        _;\n    }\n\n    function nextStage() internal {\n        stage = Stages(uint(stage) + 1);\n    }\n\n    // This modifier goes to the next stage\n    // after the function is done.\n    modifier transitionNext()\n    {\n        _;\n        nextStage();\n    }\n\n\n    //Address of the teacher\n    address public teacher;\n    string public className;\n\n    uint256 public studentCount;\n    uint256 public maxStudents = 2;\n    uint256 public tuitionFee;\n    uint256 public feeCollected;\n    address[] public students;\n\n    struct Student {\n        string studentName;\n        uint256 teacherRating;\n        uint256 grade;\n    }\n    //Constructor \n    \n    constructor(uint _tuitionFee, string _className) public {\n        \n        teacher = msg.sender;\n        className = _className;\n        if(_tuitionFee > 0) {\n            tuitionFee = _tuitionFee;\n        }else{\n            tuitionFee = 1 ether;\n        }\n    }\n    function() public payable {\n    // this function enables the contract to receive funds\n    }\n    \n    function getBalance() public view returns (uint256) {\n        return address(this).balance;\n    }\n\n    //The address of the student map to the structure\n    mapping(address => Student) public studentInfo;\n\n    modifier onlyTeacher{\n        require(msg.sender == teacher, \"Only Teacher\");\n        _;\n\n    }\n \n\n    function checkStudentExists(address student) public view returns(bool){\n        for(uint256 i = 0; i < students.length; i++){\n            if(students[i] == student) return true;\n        }\n        return false;\n    }\n\n    event registerStudent(address student);\n    \n    function registerTuition(string _studentName) public payable atStage(Stages.Registration){\n        require(studentCount<maxStudents);\n        require(!checkStudentExists(msg.sender), \"Student already registered\");\n        require(msg.value >= tuitionFee, \"Tuition Fee is 1 Ether\");\n        uint256 ethToReturn = msg.value - tuitionFee;\n        //Store student into student array\n        students.push(msg.sender);\n        studentInfo[msg.sender].studentName = _studentName;\n        studentCount ++;\n        feeCollected += tuitionFee;\n        if(ethToReturn > 0){\n            msg.sender.transfer(ethToReturn);\n        } \n        \n        if(studentCount == maxStudents){\n            setStageToStarted();\n        }\n        \n    }\n    \n    function closeRegistration() public onlyTeacher atStage(Stages.Registration){\n        setStageToStarted();\n    }\n  \n   \n\n    function withdawFees() public onlyTeacher atStage(Stages.Review){\n        \n        uint amount = feeCollected;\n        // Remember to zero the pending refund before\n        // sending to prevent re-entrancy attacks\n        feeCollected = 0;\n        msg.sender.transfer(amount);\n\n    }\n\n    function setStageToStarted() internal atStage(Stages.Registration) transitionNext{\n\n    }\n\n    function setStageToEnded()  internal atStage(Stages.Started) transitionNext{\n\n    }\n\n    function setStageToReview()  internal atStage(Stages.Ended) transitionNext{\n\n    }\n\n\n\n\n\n\n\n\n\n\n\n}",
  "sourcePath": "/home/louis/Desktop/blockchain_project/contracts/Tuition.sol",
  "compiler": {
    "name": "solc",
    "version": "0.4.24+commit.e67f0147.Emscripten.clang"
  },
  "schemaVersion": "2.0.1",
  "updatedAt": "2018-08-18T12:48:41.719Z"
}